:10000000021544008F828E83E0540100000070F8D6
:100010002278FFE4F6D8FD0215A20203DBE8648033
:10002000F8E933E83360110460F0ED33EC33700924
:10003000E8FCE9FDEAFEEBFF220460DED3EB9FEA79
:100040009EE99DE8C2E78CF0C2F795F0400CE8CC41
:10005000F8E9CDF9EACEFAEBCFFB1203A685D0F092
:100060005804700320D5B3E80470075002B2D502DB
:1000700003E592D5EC0460F7E4CCC0E0C398F860E7
:100080003B94186008400DD0E0FB0203BDE4FBFA8E
:10009000C9FC8028E830E406E4C9FBE4CAFCE83087
:1000A000E305E4C9CACBFCE854076010F8C3E913C0
:1000B000F9EA13FAEB13FBEC13FCD8F130F52FC37C
:1000C000E49CFCEF9BFFEE9AFEED99FDD0E0FBEF88
:1000D0004E4D4C701222DB030203E2EC2CFCEF339A
:1000E000FFEE33FEED33FDED30E7EB0203BDEF2B0A
:1000F000FFEE3AFEED39FDD0E0FB50130BBB0003E1
:100100000203E5ED13FDEE13FEEF13FFEC13FC020B
:1001100003BDEC4D6011E8497017ED33EC3304601A
:100120000DE4FCFFFEFD22E933E8330470F802031E
:10013000DB1203A658046009E4CC24815006285041
:10014000090203E52840030203E2C0E0EB4A7044E1
:10015000B98006D0E0FB0203D1EF4E701CBD8008D1
:10016000EBFFEAFEE9FD80EBE98DF0A4FEE5F0028D
:1001700001FBE9CDF9EAFEEBFFEF89F0A4FCE5F025
:10018000CE89F0A42EFFE435F0CD89F0A42DFEE455
:1001900035F08067EF4E7005BD80D780C3EF8BF0E0
:1001A000A4ACF0EE8BF0A42CFCE435F0F8EF8AF070
:1001B000A42CE5F038FCE433CB8DF0A42CFCE5F066
:1001C0003BF8EE8AF0A42CFCE5F038F8E433CF8954
:1001D000F0A42CFCE5F038CF3400CE89F0A42FFF3A
:1001E000E5F03EFEE433C98DF0A42EFEE5F039CDF6
:1001F0008AF0A42FFFE5F03EFEE43DFD33D0E0FBA6
:1002000050070BBB000F0203E5EC2CFCEF33FFEEB5
:1002100033FEED33FD0203BD0203E5EC5D04600532
:10022000E8590470030203DB1203A6580460F6ECDD
:100230004860F2EC7004FDFEFF22C860DB2481C838
:100240005009C398600250060203E29850CAF58232
:10025000E9294B4A7005AB820203D175F0007C1A84
:100260007880C3EF9BEE9AED99400DC3EF9BFFEEB4
:100270009AFEED99FDE842F0DC23ACF0D0E0FFD02F
:10028000E0FED0E0FDAB8220E7101BEB60BAEC2C67
:10029000FCEF33FFEE33FEED33FD0203BDE803F860
:1002A00030E705C0F075F000EF2FFFEE33FEED33C1
:1002B000FD40B830E7C280AA74F8CC6480CCC86432
:1002C00080C8F58204604FC3EB9FF5F0EA9E42F0D0
:1002D000E99D42F0E89C45F0603C501DE5825FFFDF
:1002E000E582D313CB5BCBF42B5582FB50280ABAA3
:1002F000002409B9002008801DE5825BFBE582D35C
:1003000013CF5FCFF4C3132F5582FF50090EBE00E9
:10031000050DBD00010CC3EB9FF5F0EA9E42F0E92C
:100320009D42F0E89C45F06007CC4820E701B3EC23
:100330002275F020800E75F010800575F0087D00A4
:100340007E007F003392D530D5031207B3EC3340E3
:1003500010EF33FFEE33FEED33FDEC33FCD5F0ED63
:1003600022E5F0247EA2D513CC92E7CDCEFF22ED7C
:10037000D2E7CD33EC3392D524814006E4FFFEFD75
:10038000FC22FCE4CFCECDCC24E0501174FF80EDF4
:10039000C3CC13CCCD13CDCE13CECF13CF0470F07E
:1003A00030D5DE0207B3E9D2E7C933E833F892D596
:1003B000EDD2E7CD33EC33FC5002B2D522EC30E77E
:1003C000100FBF000C0EBE00080DBD00040BEB604B
:1003D00014A2D5EB13FCED92E7FD2274FFFCFDFEA9
:1003E000FF22E480F8A2D574FF13FC7D80E480EF47
:1003F000ED33EC33600A047003BD8004ECB2E7FC1B
:1004000022F920E73624F950037907E4F42402FBAB
:10041000E582158270021583DBF6E024FB501BE9B0
:100420006014E4F0E582158270021583E004F0B4F4
:100430000A08E4F0D9EE7401F00A22C2D522ED33A5
:10044000EC3392D5FA602AB4FF33EDC2E77BFF604C
:10045000067A047963E4227A04796C20D5047A045C
:100460007967224E614E002B494E46002D494E467B
:1004700000E47A08F0A3DAFC7B00740722C083C092
:1004800082ECC0E0EDC0E0EEC0E0EFC0E0EA75F065
:1004900010A4CAABF075F04DA42BFBE435F0FCEAD8
:1004A0002410FAEB34C5FBEC34D9FCEDC2E7FF7540
:1004B000F056A4F42411C5F0F434C58FF0A42AE555
:1004C000F03BE43CF020E714120573D0E0FFD0E0ED
:1004D000FED0E0FDD0E0FC12021B8014F4041205F3
:1004E00073D0E0FFD0E0FED0E0FDD0E0FC120112BE
:1004F000D082D083E0FAEDD2E7CD33EC332482FB17
:10050000E4C3CF33CFCE33CECD33CD33DBF37B0754
:1005100075F00A846004F0A31B0AE5F0F0A38FF0E5
:10052000740AA4FFACF08EF0740AA42CFEACF05058
:10053000010C8DF0740AA42CFDE435F0F0A3DBDE91
:100540007407223F8000004120000042C8000044A0
:100550007A0000461C400047C35000497424004BF9
:100560001896804CBEBC205A0E1BCA6753C21C741E
:100570009DC5AEFB60065407601C23231205A1EB4A
:100580005438600912058D12059C120112ECF8ED29
:10059000F9EEFAEFCB22EB12059C80F154380324DC
:1005A0001C900543FE93FC0EEE93FD0EEE930ECED3
:1005B00093FF22C0E0EFFBEEFAEDF9ECF812011226
:1005C000D0E0F5F0EFFBEEFAEDF9ECF812083EA3FF
:1005D000A3A3A3E8C0E0E9C0E0EAC0E0EBC0E0C04C
:1005E000F012011212085AA3A3A3A3120021D0F003
:1005F000D0E0FBD0E0FAD0E0F9D0E0F8D5F0D4229A
:10060000BB010689828A83E0225002E722BBFE02F8
:10061000E32289828A83E49322BB010CE58229F5D7
:1006200082E5833AF583E0225006E92582F8E62246
:10063000BBFE06E92582F8E222E58229F582E58300
:100640003AF583E49322BB010689828A83F0225023
:1006500002F722BBFE01F322C5F0F8A3E028F0C5A3
:10066000F0F8E582158270021583E038F022EF2B56
:10067000FFEE3AFEED39FDEC38FC22C3EF9BFFEEB6
:100680009AFEED99FDEC98FC22E88FF0A4CC8BF05B
:10069000A42CFCE98EF0A42CFC8AF0EDA42CFCEA3E
:1006A0008EF0A4CDA8F08BF0A42DCC3825F0FDE978
:1006B0008FF0A42CCD35F0FCEB8EF0A4FEA9F0EB6E
:1006C0008FF0A4CFC5F02ECD39FEE43CFCEAA42D7A
:1006D000CE35F0FDE43CFC2275F008758200EF2F6A
:1006E000FFEE33FECD33CDCC33CCC58233C5829BF8
:1006F000ED9AEC99E58298400CF582EE9BFEED9A1E
:10070000FDEC99FC0FD5F0D6E4CEFBE4CDFAE4CCB9
:10071000F9A88222B800C1B90059BA002DEC8BF0BB
:1007200084CFCECDFCE5F0CBF97818EF2FFFEE3378
:10073000FEED33FDEC33FCEB33FB10D703994004A3
:10074000EB99FB0FD8E5E4F9FA227818EF2FFFEECA
:1007500033FEED33FDEC33FCC933C910D7059BE9FB
:100760009A4007EC9BFCE99AF90FD8E0E4C9FAE457
:10077000CCFB2275F010EF2FFFEE33FEED33FDCCF6
:1007800033CCC833C810D7079BEC9AE899400AEDE0
:100790009BFDEC9AFCE899F80FD5F0DAE4CDFBE488
:1007A000CCFAE4C8F922EF4BFFEE4AFEED49FDEC2E
:1007B00048FC22C3E49FFFE49EFEE49DFDE49CFC14
:1007C00022EB9FF5F0EA9E42F0E99D42F0E89C455D
:1007D000F022E8600FECC313FCED13FDEE13FEEF07
:1007E00013FFD8F122E8600FEFC333FFEE33FEEDC5
:1007F00033FDEC33FCD8F122BB010789828A8302E6
:1008000008325005E9F8020922BBFE05E9F80209A1
:100810002E89828A8302083EBB010789828A83026D
:10082000086A5005E9F802093ABBFE05E9F8020931
:100830004622E0FCA3E0FDA3E0FEA3E0FF22E49358
:10084000FC740193FD740293FE740393FF22E0F89D
:10085000A3E0F9A3E0FAA3E0FB22E493F874019388
:10086000F9740293FA740393FB22ECF0A3EDF0A366
:10087000EEF0A3EFF022E0FBA3E0FAA3E0F922F808
:10088000E0FBA3A3E0F925F0F0E5821582700215E4
:1008900083E0FA38F022EBF0A3EAF0A3E9F022E4D7
:1008A00093FB740193FA740293F922D083D082F8F7
:1008B000E4937012740193700DA3A393F8740193E1
:1008C000F5828883E4737402936860EFA3A3A38026
:1008D000DFE5112582F582E5103583F583B5100437
:1008E0008582112210AF06858211F51022858211B2
:1008F000F510D2AF22EC8EF0A4CCC5F0CCCDF8EF41
:10090000A4CEC5F02DFDE43CFCE8A42EC8C5F03D06
:10091000FDE43CFCEFA4FFE5F028FEE43DFDE43CF3
:10092000FC22E6FC08E6FD08E6FE08E6FF22E2FC03
:1009300008E2FD08E2FE08E2FF22ECF608EDF60808
:10094000EEF608EFF622ECF208EDF208EEF208EF10
:10095000F222E50824A1F582E43400F583E00508DD
:100960002290009E3007039000A1E475F001120868
:100970007F0206002000E97F2ED2008018EF540F7E
:100980002490D43440D4FF30040BEF24BFB41A00B9
:1009900050032461FFE50960021509050CE50C70A0
:1009A00002050B30070E90009EE475F00112087FDF
:1009B000EF020646021DCA7403D2078003E4C20791
:1009C000F50890009E120896E4F509F50BF50CE584
:1009D0000960077F2012099580F5750AFFC201C2E0
:1009E00000C202C203C205C206C208120961FF703A
:1009F0000D3007057F001209A6AF0CAE0B22B425FF
:100A00005FC2D5C204120961FF24D0B40A00501A93
:100A100075F00A780930D50508B6FF0106C6A42688
:100A2000F620D5047002D20380D924CFB41A00EF87
:100A30005004C2E5D204020C98D20180C6D20080D4
:100A4000C0D20280BCD2D580BAD20580B47F201239
:100A500009952002077401B5090040F1120952FFFF
:100A60001209950209CFD208D2068095120952FBCD
:100A7000120952FA120952F94A4B700679967A0D08
:100A80007BFF20022EE509602A7E008E827583009E
:100A900012061960060EEE650A70F0C2D5EBC0E0D2
:100AA000EAC0E0E9C0E0EE120CF9D0E0F9D0E0FADB
:100AB000D0E0FB120600FF60AAEBC0E0EAC0E0E96C
:100AC000C0E0120995D0E02401F9D0E03400FAD05A
:100AD000E0FBE50A0460DCD50AD98087D20280A257
:100AE000120CDB60F7E50A700104120401A90A6028
:100AF0000DE50A600914F50A120D83EF60F3EA3080
:100B0000E702F404C3995079EAF4250A0430E701B6
:100B1000E404F50A800D120CDB60C1EA050A250A1F
:100B2000120401EA9000CDF030E701E4250A04D573
:100B30000A0420050114120CF9E4C0E0120D8390A0
:100B400000CDE0601320E70714F012097D80220435
:100B5000F0D0E014C0E07F0012097DE50A600712C2
:100B60000974150A800B300503120974D0E00209DC
:100B7000CFD0E00480C4120CDB609EE50A041204AE
:100B8000019000CDEAF0E50A20050260010424048A
:100B9000120CF974FF04C0E0120D8312097DE50AFE
:100BA0002005026003120974D0E0B50AE87F4512FF
:100BB00009879000CDE07F2B30E7047F2DF404C03F
:100BC000E0120995D0E075F00A84C0F012097ED0D9
:100BD000E012097E0209CF791080027908C206C2AC
:100BE000088008D2D5790A8004790AC2D5E50A04BA
:100BF0007002F50AE4FAFDFEFF120952FC7B0820A0
:100C00000113120952FD7B1030000A120952FE1224
:100C10000952FF7B20EC3382D592D55013C3E430C8
:100C200000069FFFE49EFEE42001039DFDE49CFC82
:100C3000E4CBF8C201EC700CCFCECDCCE824F8F8B0
:100C400070F38017C3EF33FFEE33FEED33FDEC336B
:100C5000FCEB33FB994002FB0FD8E9EB300105F8C0
:100C6000D0E0C448B201C0E00AEC4D4E4F78207B82
:100C70000070C2EAB50A0040BCC0E0120CFBD0F024
:100C8000D0E0200104C4C0E0C4B201C0F012097E6B
:100C9000D0F0D5F0EB0209CF1208AB0A6C530BD79A
:100CA000580A3D4C0A39420BDB4F0BE3440BE34936
:100CB0000A52430BE9550B16460B76450AE0470DE1
:100CC000B6500A412D0A452E0A682B0A49230A66A6
:100CD000200D9F2A0A014800000A60E50AB4FF03BC
:100CE000750A06120952FC120952FD120952FE122F
:100CF0000952FF9000C602043E790AA2D5200314CF
:100D0000300509B910020404B9080104A2D520066F
:100D1000025001042002689202B509005034C0E07C
:100D20007F203003197F30A20272067205500F1225
:100D30000D52C202C206C205C2087F30800F3005C4
:100D400003E9C0E0120995300503D0E0F9D0E0B521
:100D500009CC3005177F30B9100C1209957F583037
:100D600004077F788003B908031209953002057FD4
:100D70002D0209957F202008F87F2B2006F3229270
:100D80000280CF7F00B40700500B24C6F582E43404
:100D900000F583E0FF22286E756C6C2900D20112E9
:100DA00009523001F8C201780930D50108F6020A6B
:100DB000012D504349581209522403B40500400143
:100DC000E4900DB193120986743A120986D2037524
:100DD0000904020BD7C0E0C0F0C083C082C085C048
:100DE00084C086758600C093759300C0D075D0000E
:100DF000C000C001C002C003C004C005C006C007D7
:100E000012207C90002DEFF0122091C004C005C08C
:100E100006C007122087D003D002D001D0001206EE
:100E20007B90005712086A900057120832E41203B0
:100E3000317B007A1B79B7784B12021B90000412A9
:100E4000086A90000412083290002DE0FBEB25E0C8
:100E500025E0242FF582E43400F58312086A7F0030
:100E60007E007D007C0090002912086A90002EE42C
:100E7000F090002EE0FFEFC3940550799000291206
:100E80000832C004C005C006C00790002EE0FFEF86
:100E900025E025E0242FF582E43400F58312084E86
:100EA00090002EE0FFEF25E025E02443F582E434B6
:100EB00000F58312083212001D122027A804A9058C
:100EC000AA06AB07D007D006D005D00412002190A7
:100ED000002912086A7B007A0079A07840900029E6
:100EE00012083212021B90000012086A90002EE0D5
:100EF00004F0020E7190000012084E9000081208D3
:100F00003212021B90001012086A7BBF7A0E799C85
:100F1000783E90001012083212021B90000C12084A
:100F20006A90000C120832C004C005C006C00790C9
:100F300000251208329000A212086AD007D006D00D
:100F400005D00412175C7B007A007900783F12000C
:100F50002112145412036F900014EFF0900014E06B
:100F6000FF121FD17F01121C717D007F001219DD5D
:100F70007B017A007915C003C002C0017BFF7A1E95
:100F800079229000A112089690002DE0FF7E00903B
:100F900000A4EEF0A3EFF0D001D002D0031209B705
:100FA0007B017A007915121A347D057F001219DD54
:100FB0007B017A007915C003C002C0017BFF7A1E55
:100FC00079289000A112089690000412083290002F
:100FD000A412086AD001D002D0031209B77B017AAB
:100FE000007915121A347D007F011219DD7B017A18
:100FF000007915C003C002C0017BFF7A1E793090D2
:1010000000A11208969000291208329000A412083C
:101010006AD001D002D0031209B77B017A0079159A
:10102000121A34D007D006D005D004D003D002D095
:1010300001D000D0D0D093D086D084D085D082D0BB
:1010400083D0F0D0E0327B007A4679E8122064EF5A
:101050004405FD7B007A4679E8122070750F00E5A3
:101060000FC39409503AAF0FEF75F005A424C0F5F3
:1010700082E43420F583AF82AE838E0D8F0EAE0DE9
:10108000AF0E8F828E8312089FAE0DAF0E8F828EB1
:1010900083740393FC740493FD121DF1050F80BF4C
:1010A0007B087A007900121D717B017A5079031256
:1010B0002064EF4402FD7B017A5079031220707B9B
:1010C000017A507913122064EF4402FD7B017A50BB
:1010D00079131220709043A0E0FFEF4440FF90434B
:1010E000A0EFF09043C2E0FFEF4410FF9043C2EF47
:1010F000F07B087A037978C003C002C0017B007AD4
:101100005179209000D3120896D001D002D0037FED
:101110000A7E00121CDD7B087A037984C003C002BA
:10112000C0017B007A5179529000D3120896D00109
:10113000D002D0037F087E00121CDD7B087A037981
:101140008CC003C002C0017B007A5179609000D34B
:10115000120896D001D002D0037F0A7E00121CDD57
:101160009044F47401F0904322E0FFEF4408FF90B4
:101170004322EFF09046ECE0FFEFC3940550069059
:101180004689743AF090480074F1F012133D90488B
:101190000074B1F0121CA77B007A4379A0C003C091
:1011A00002C0017B007A4379B09000D3120896D038
:1011B00001D002D0037F0E7E00121CDD9043B0E010
:1011C000FFEF54FDFFEFF0227F947E017D007C0055
:1011D0009000D112086A905120E0FFEF5480FFEF99
:1011E000F0905122E0FFEF54F0FF9000D0EFF0902C
:1011F00000D0E0FFEF440FFF905122EFF090512319
:10120000E0FFEF54F0FF9000D0EFF09000D0E0FF4F
:10121000905123EFF0905124E0FFEF54F0FF900045
:10122000D0EFF09000D0E0FF905124EFF0905120EB
:10123000E0FFEF54DFFFEFF0905120E0FFEF44407C
:10124000FFEFF07F007E00121D44905120E0FFEF81
:101250004410FFEFF07F017E00121D44905121E009
:10126000FF9000D0EFF0905120E0FFEF54EFFFEF40
:10127000F07F007E00121D449000D0E0FFEF540884
:10128000FF9000D0EFF0905120E0FFEF4410FFEF0F
:10129000F07F017E00121D44905120E0FFEF54EFDB
:1012A000FFEFF09000D0E0FFEF70077F0A7E0012A2
:1012B0001D449000D11208327BFF7AFF79FF78FF3E
:1012C00012066E9000D112086A9000D0E0FFEF6025
:1012D000129000D1120832D3EF9400EE9400400334
:1012E000021243905120E0FFEF54BFFFEFF0905106
:1012F00020E0FFEF5480FFEFF0905122E0FFEF5429
:10130000F0FFEFF0905123E0FFEF54F0FF9000D09A
:10131000EFF09000D0E0FFEF440FFF905123EFF08B
:10132000905124E0FFEF54F0FF9000D0EFF09000D8
:10133000D0E0FFEF440FFF905124EFF0227B007AC2
:101340004079807DBF7C5D121FF19040827418F05F
:101350007B007A4079847D977C3A121FF190408619
:101360007419F09043007402F09040007408F090FB
:1013700042007403F07B0C7A0179081220649046D5
:10138000A1EFF07B007A4279227D087C00121FF1E8
:101390007B007A4279207D517C12121FF19000D29D
:1013A000E4F07F197E007D007C009000CE12086A78
:1013B0009000CE120832D3EF9400EE9400404E908D
:1013C00000D2E0FFEF64036044904225E0FFEF5459
:1013D00001FF7E009000D2E0FEEE25E0FEEE4FFF22
:1013E000EF5403FF9000D2EFF07FE07E017D007CA0
:1013F00000121C009000CE1208327BFF7AFF79FFAA
:1014000078FF12066E9000CE12086A80A39000CE7C
:10141000120832EF4E70057F03121F4F7B007A4097
:1014200079047D007C01121FF19040047407F09054
:101430004006E4F09040087448F0904004E4F090D6
:1014400040017402F09043A2E0FFEF4403FF904399
:10145000A2EFF02290009E12086A74FFFFFEFDFCCE
:1014600090009EE0F8A3E0F9A3E0FAA3E0FBC3122A
:1014700007C160387F807E967D187C4B90009EE08F
:10148000F8A3E0F9A3E0FAA3E0FB1202B86002506F
:101490001B7F807E967D187CCB90009EE0F8A3E0B9
:1014A000F9A3E0FAA3E0FB1202B8500F90009EE00F
:1014B000FCA3E0FDA3E0FEA3E0FF2290009EE0FC81
:1014C000A3E0FDA3E0FEA3E0FF12036F9000A212D1
:1014D000086A9000A2E0FCA3E0FDA3E0FEA3E0FF09
:1014E000EC120331C8ECC8C9EDC9CAEECACBEFCBC8
:1014F00090009EE0FCA3E0FDA3E0FEA3E0FF12004D
:101500001DE4FBFAF9F81202B8602640249000A20C
:10151000E0FCA3E0FDA3E0FEA3E0FFEF24FFFFEE6D
:1015200034FFFEED34FFFDEC34FFFC9000A2120806
:101530006A9000A2E0FCA3E0FDA3E0FEA3E0FFECC4
:101540001203312275930078007583467582E8E0B6
:101550004401F0009046ECE0F99046FAE0FAB90355
:10156000225420B40012B8001AEA901FFFF0740150
:10157000901FFEF09046F6F0901FFEE06005901F71
:10158000FFE0FA90480074C0F07581219000007867
:10159000007920E4F0A3D8FCD9FAEA9000E0F00248
:1015A000001175101F7511FD121A821210460215D6
:1015B000EC021D9EE493A3F8E493A34003F680019C
:1015C000F208DFF48029E493A3F85407240CC8C37D
:1015D00033C4540F4420C8834004F456800146F6B7
:1015E000DFE4800B0102040810204080901B19E406
:1015F0007E019360BCA3FF543F30E509541FFEE415
:1016000093A360010ECF54C025E060A840B8E493D6
:10161000A3FAE493A3F8E493A3C8C582C8CAC58318
:10162000CAF0A3C8C582C8CAC583CADFE9DEE7809D
:10163000BE33DA929E35B16011377FE5FE392184E1
:10164000893AAEC3FF3C1D955B3D6358473E75FD2F
:10165000F03F3172183F800000C2D50203E502035B
:10166000DBBD80FA50F30203E2ED33EC330460F1AA
:101670007B3B7AAA79B8783F120112ED33EC3392B2
:10168000D5247B5011A2D570DB500BED448024048F
:101690005004A2D580CEEFFBEEFAEDF9ECF8120380
:1016A0006FEFF582F404FC12033B120021C082901C
:1016B000163174091205C2ED33CC33D0F092D52522
:1016C000F0A2D57001C313CC13FD229000A612081E
:1016D0006A9000A6E0FCA3E0FDA3E0FEA3E0FF12F9
:1016E00016699000AA12086A9000A6E0FCA3E0FD2B
:1016F000A3E0FEA3E0FF1203F01216699000AE1201
:10170000086A9000AEE0FCA3E0FDA3E0FEA3E0FFCA
:101710009000AAE0F8A3E0F9A3E0FAA3E0FB12002E
:1017200021ECC0E0EDC0E0EEC0E0EFC0E09000AE24
:10173000E0F8A3E0F9A3E0FAA3E0FB9000AAE0FC44
:10174000A3E0FDA3E0FEA3E0FF12001DD0E0FBD06C
:10175000E0FAD0E0F9D0E0F812021B2290009E12CD
:10176000086A121B5F9000A212084E90009E120899
:101770003212001D9000E912086A7FCD7ECC7D4CAC
:101780007C3E9000E912084E1202B8600250107FB1
:10179000007E007D347C429000E512086A8038901B
:1017A00000E91208321216CBA804A905AA06AB0755
:1017B0007F007E007D807C3F12001D7B007A0079D7
:1017C000C678421201127B007A007900784012023A
:1017D0001B9000E512086A9000E5120832227F286B
:1017E0007E007D007C001218C27F03121AD07F0594
:1017F0007E007D007C001218C27F03121AD07F0F7A
:101800007E007D007C001218C27F03121AD07F0177
:101810007E007D007C001218C27F02121AD07F0564
:101820007E007D007C001218C27F06121C717F0EA4
:10183000121C717F2C121C717F08121C717F011207
:101840001C717F0C121C717F03121C717F057E00BE
:101850007D007C001218C222906577E0FFEF54F8FB
:10186000FF9000CEEFF09000CEE0FFEF4401FF903C
:101870006577EFF0906577E0FFEF54FCFF9000CEC6
:10188000EFF09000CEE0FF906577EFF01220007F40
:101890000A121F817F00121F717F0C121F6112201C
:1018A000A27F05121F91121EFD9000CFEFF09065F0
:1018B00097E0FFEF4410FFEFF09000CFE0FF121E23
:1018C0000A2290FFFC1208D112086A851083851144
:1018D00082120832D3EF9400EE9480402F9000E102
:1018E000120832121C00851083851182C083C082C9
:1018F000120832EF2400FFEE3480FEED34FFFDECE1
:1019000034FFFCD082D08312086A80BF9000D712C7
:10191000083285108385118212084E120689121C26
:10192000009000041208D1229000A5EFF090512001
:10193000E0FFEF4420FFEFF0905120E0FFEF54BFB5
:10194000FFEFF07F007E00121D44905120E0FFEF7A
:1019500054F0FFEFF0905120C083C082E0FF900070
:10196000A5E0FEEE4410FEEF4EFFD082D083EFF0F4
:101970007F017E00121D44905120E0FFEF54EFFFE5
:10198000EFF022906476E0FFEF54C0FF9000CEEFBE
:10199000F09000CEE0FFEF4409FF906476EFF09006
:1019A0006496E0FFEF4401FFEFF07FFF121FB17F6D
:1019B000FF121FC17F7F121FD17F00121FE1121E75
:1019C000FD9000CFEFF0906496E0FFEF4410FFEF42
:1019D000F09000CFE0FF121E0A12201A2290009E03
:1019E000EFF090009FEDF090009EE0FFEF1208AB4B
:1019F0001A00001A0D011A1A021A270300001A33DE
:101A000090009FE0FFEF2480FF121C712290009F46
:101A1000E0FFEF24C0FF121C712290009FE0FFEF57
:101A20002494FF121C712290009FE0FFEF24D4FF4A
:101A3000121C712290009E1208969000A17401F071
:101A400090009E120876120600FF9000A2EFF09020
:101A500000A2E0FFEF602A9000A2E0FF121C3B9082
:101A6000009E1208769000A1E0FFE92FF9E43AFA0F
:101A7000120600FF9000A2EFF09000A1E004F080B9
:101A8000CE229000CEE4F09000CEE0FFEFD3941F82
:101A9000503D9000CEE0FF7E02EF8EF0A4FFAEF04E
:101AA000EF2400FFEE3444FEAA06A9077B01C00321
:101AB000C002C0017BFF7A1D7941AC02AD01D001AB
:101AC000D002D003121FF39000CEE004F080B822C1
:101AD0009000D0EFF0905120E0FFEF549FFFEFF027
:101AE000905120E0FFEF54F0FFEFF0905120C083C1
:101AF000C082E0FF9000D0E0FEEE4410FEEF4EFF0B
:101B0000D082D083EFF07F017E00121D44905120DF
:101B1000E0FFEF54EFFFEFF02244000840EB3E12ED
:101B2000440025408000004100F3004100F20044E1
:101B300000DC016E36004400D700005DC04100DBD0
:101B4000184400E12EE000004100F4004100F500DF
:101B50004100F6004300ED0000004100F700007F67
:101B600001121D117F327E007D007C001218C27FA1
:101B700000121D117F327E007D007C001218C27F92
:101B800001121D117F327E007D007C001218C27F81
:101B900000121D117F327E007D007C001218C222CF
:101BA0007FFF7EFF7DFF7CFF121E7D7FFF7EFF7D1E
:101BB000FF7CFF121E93121EFD9000CEEFF0906589
:101BC00094E0FFEF4410FFEFF09000CEE0FF121E14
:101BD0000A12200D7F00121FA1229000CEEEF0A36A
:101BE000EFF07B027A4479009000CEE0FEA3E0FFA4
:101BF000AD07AC06121FF3229044C07401F02232EC
:101C0000EC4D4E700D78FCEF24E950032840FD2286
:101C100000007BF178DA0000EF28FF78FFEE38FE55
:101C2000ED38FDEC38FC50E7EF2BFFEE38FEED38D9
:101C3000FDEC38FC40F222050203049000A3EFF013
:101C40001211C89000A3E0FFEFC4540FFF9000A44E
:101C5000EFF09000A4E0FF1219289000A3E0FFEF3E
:101C6000540FFF9000A4EFF09000A4E0FF12192899
:101C7000229000CEEFF01211C89000CEE0FFEFC42A
:101C8000540FFF9000CFEFF09000CFE0FF121AD07A
:101C90009000CEE0FFEF540FFF9000CFEFF09000E8
:101CA000CFE0FF121AD0227B0C7A0179CF12206488
:101CB0009000CEEFF09000CEE0FFEF5407FF905879
:101CC0006EEFF09000CEE0FFEFC4540FFFEF540F23
:101CD000FF90586FEFF09058767444F022758600AC
:101CE000EF4E6027EF60010E7593009000D3E0F592
:101CF00095A3E0F585A3E0F5848B938A838982E040
:101D0000A30586F0A31586DFF6DEF4E4F593F595DA
:101D1000229000A6EFF0905160E0FFEF54FBFF909F
:101D200000A7EFF09000A6E0FFEF25E025E0FFEF31
:101D30005404FF9000A7E0FEEF4EFF905160EFF0DB
:101D40002280FE32EEFA9000DBE0F88FF0A4FFAEC6
:101D5000F0E88AF0A42EFEE5F03400FDEF24C9FF80
:101D600078FFEE38FEED38FDE438FC5003021C002D
:101D700022ACEAADA08B938A838982E0F96017A335
:101D8000E0F5EAA3E0F5A0A3E060F4FAA3E0F8A38D
:101D9000E0F2DAF8D9E98DA08CEAE4F59322D2AF2B
:101DA0009044F474FDF0121F3C7E0D7FD5121BDAB7
:101DB000121EBE121ED3121EE8121E39121E50121F
:101DC0001EA97F01121C7180FE22EFB40A07740D58
:101DD000121DD5740A309811A899B8130CC2983006
:101DE00098FDA899C298B811F63099FDC299F59955
:101DF00022EC4D6011ED60010C8B938A838982E4A3
:101E0000F0A3DDFCDCFA75930022EF54016004D2EC
:101E1000AF8002C2AFEF5402FF9044F4E054FD4F94
:101E2000F022433A20257500543A20252E336600CF
:101E300064543A20252E3466009043A2E0FFEF441C
:101E400002FFEFF09043B2E0FFEF4402FFEFF02219
:101E50009043A2E0FFEF4401FFEFF09043B2E0FFB8
:101E6000EF4401FFEFF0229000CEEFF09000CEE0C3
:101E7000FFEFC43354E0FF904480EFF0229000CF96
:101E800012086A7B027A6579249000CF1208321218
:101E90001F29229000CF12086A7B027A657904908C
:101EA00000CF120832121F29229000F2E0FFEF70DB
:101EB000091217DE9000F27401F012203422900013
:101EC000F4E0FFEF70091218589000F47401F0125A
:101ED0002040229000F5E0FFEF7009121BA0900057
:101EE000F57401F012204C229000F6E0FFEF70092B
:101EF0001219839000F67401F0122058229044F4D5
:101F0000E0F84402F0E85402FF10AF012274014FE0
:101F1000FF228B938A838982E0FFA3E0FEA3E0FD8A
:101F2000A3E0FC759300228B938A838982EFF0A350
:101F3000EEF0A3EDF0A3ECF07593002212209B7E4F
:101F40001B7FFF121BDA7F07121E67121BF82290FD
:101F500000D3EFF09000D3E0FF9000D3EFF080FECD
:101F6000229000D0EFF09000D0E0FF906587EFF076
:101F7000229000D0EFF09000D0E0FF906407EFF0E7
:101F8000229000D0EFF09000D0E0FF906427EFF0B7
:101F9000229000D0EFF09000D0E0FF906437EFF097
:101FA000229000CFEFF09000CFE0FF906584EFF03B
:101FB000229000D0EFF09000D0E0FF906406EFF0A8
:101FC000229000D0EFF09000D0E0FF906446EFF058
:101FD000229000D0EFF09000D0E0FF906426EFF068
:101FE000229000D0EFF09000D0E0FF906486EFF0F8
:101FF000228B938A838982EDF0A3ECF07593002203
:102000001220A2EF30E6051220A880F4221220AEA2
:10201000EF30E30512209180F4221220B4EF30E477
:10202000051220BA80F422ED33EC3360065004EC44
:102030006480FC227F0C121C719000F37401F0226A
:10204000906577E0FFEF4480FFEFF022906575E048
:10205000FFEF4480FFEFF022906476E0FFEF4480D2
:10206000FFEFF0228B938A838982E0759300FF2231
:102070008B938A838982EDF075930022906407E048
:10208000FF906447E0FF227B027A657924121F14D7
:10209000227B027A657944121F14229044C874018D
:1020A000F022906567E0FF22906447E0FF22906590
:1020B00064E0FF22906466E0FF22906456E0FF2215
:1020C000005100002000513000200051C0001000DD
:1020D00051F0001001000010000114000800014040
:0D20E000000A00014C000200015000002029
:00000001FF
